{
  "_format": "hh-sol-artifact-1",
  "contractName": "Marketplace",
  "sourceName": "src/backend/contracts/Marketplace.sol",
  "abi": [
    {
      "inputs": [
        {
          "internalType": "uint256",
          "name": "_feePercent",
          "type": "uint256"
        }
      ],
      "stateMutability": "nonpayable",
      "type": "constructor"
    },
    {
      "anonymous": false,
      "inputs": [
        {
          "indexed": false,
          "internalType": "uint256",
          "name": "itemId",
          "type": "uint256"
        },
        {
          "indexed": true,
          "internalType": "address",
          "name": "nft",
          "type": "address"
        },
        {
          "indexed": false,
          "internalType": "uint256",
          "name": "tokenId",
          "type": "uint256"
        },
        {
          "indexed": false,
          "internalType": "uint256",
          "name": "price",
          "type": "uint256"
        },
        {
          "indexed": true,
          "internalType": "address",
          "name": "seller",
          "type": "address"
        }
      ],
      "name": "ItemListed",
      "type": "event"
    },
    {
      "anonymous": false,
      "inputs": [
        {
          "indexed": false,
          "internalType": "uint256",
          "name": "itemId",
          "type": "uint256"
        },
        {
          "indexed": true,
          "internalType": "address",
          "name": "nft",
          "type": "address"
        },
        {
          "indexed": false,
          "internalType": "uint256",
          "name": "tokenId",
          "type": "uint256"
        },
        {
          "indexed": false,
          "internalType": "uint256",
          "name": "price",
          "type": "uint256"
        },
        {
          "indexed": true,
          "internalType": "address",
          "name": "seller",
          "type": "address"
        },
        {
          "indexed": true,
          "internalType": "address",
          "name": "buyer",
          "type": "address"
        }
      ],
      "name": "ItemPurchased",
      "type": "event"
    },
    {
      "anonymous": false,
      "inputs": [
        {
          "indexed": false,
          "internalType": "uint256",
          "name": "itemId",
          "type": "uint256"
        },
        {
          "indexed": true,
          "internalType": "address",
          "name": "nft",
          "type": "address"
        },
        {
          "indexed": false,
          "internalType": "uint256",
          "name": "tokenId",
          "type": "uint256"
        },
        {
          "indexed": true,
          "internalType": "address",
          "name": "seller",
          "type": "address"
        }
      ],
      "name": "ItemUnlisted",
      "type": "event"
    },
    {
      "inputs": [],
      "name": "feeAccount",
      "outputs": [
        {
          "internalType": "address payable",
          "name": "",
          "type": "address"
        }
      ],
      "stateMutability": "view",
      "type": "function"
    },
    {
      "inputs": [],
      "name": "feePercent",
      "outputs": [
        {
          "internalType": "uint256",
          "name": "",
          "type": "uint256"
        }
      ],
      "stateMutability": "view",
      "type": "function"
    },
    {
      "inputs": [
        {
          "internalType": "uint256",
          "name": "_itemId",
          "type": "uint256"
        }
      ],
      "name": "getTotalPrice",
      "outputs": [
        {
          "internalType": "uint256",
          "name": "",
          "type": "uint256"
        }
      ],
      "stateMutability": "view",
      "type": "function"
    },
    {
      "inputs": [],
      "name": "itemCount",
      "outputs": [
        {
          "internalType": "uint256",
          "name": "",
          "type": "uint256"
        }
      ],
      "stateMutability": "view",
      "type": "function"
    },
    {
      "inputs": [
        {
          "internalType": "uint256",
          "name": "",
          "type": "uint256"
        }
      ],
      "name": "items",
      "outputs": [
        {
          "internalType": "uint256",
          "name": "itemId",
          "type": "uint256"
        },
        {
          "internalType": "contract IERC721",
          "name": "nft",
          "type": "address"
        },
        {
          "internalType": "uint256",
          "name": "tokenId",
          "type": "uint256"
        },
        {
          "internalType": "uint256",
          "name": "price",
          "type": "uint256"
        },
        {
          "internalType": "address payable",
          "name": "seller",
          "type": "address"
        },
        {
          "internalType": "bool",
          "name": "sold",
          "type": "bool"
        }
      ],
      "stateMutability": "view",
      "type": "function"
    },
    {
      "inputs": [
        {
          "internalType": "contract IERC721",
          "name": "_nft",
          "type": "address"
        },
        {
          "internalType": "uint256",
          "name": "_tokenId",
          "type": "uint256"
        },
        {
          "internalType": "uint256",
          "name": "_price",
          "type": "uint256"
        }
      ],
      "name": "listItem",
      "outputs": [],
      "stateMutability": "nonpayable",
      "type": "function"
    },
    {
      "inputs": [
        {
          "internalType": "uint256",
          "name": "_itemId",
          "type": "uint256"
        }
      ],
      "name": "purchaseItem",
      "outputs": [],
      "stateMutability": "payable",
      "type": "function"
    },
    {
      "inputs": [
        {
          "internalType": "uint256",
          "name": "_itemId",
          "type": "uint256"
        }
      ],
      "name": "unlistItem",
      "outputs": [],
      "stateMutability": "nonpayable",
      "type": "function"
    }
  ],
  "bytecode": "0x60c06040523480156200001157600080fd5b50604051620015623803806200156283398181016040528101906200003791906200009c565b60016000819055503373ffffffffffffffffffffffffffffffffffffffff1660808173ffffffffffffffffffffffffffffffffffffffff1660601b815250508060a0818152505050620000ec565b6000815190506200009681620000d2565b92915050565b600060208284031215620000af57600080fd5b6000620000bf8482850162000085565b91505092915050565b6000819050919050565b620000dd81620000c8565b8114620000e957600080fd5b50565b60805160601c60a05161143f620001236000396000818161050301526108860152600081816104d90152610aac015261143f6000f3fe60806040526004361061007b5760003560e01c806389bfd38f1161004e57806389bfd38f1461012a578063bfb231d214610153578063ca7dd37514610195578063d38ea5bf146101d25761007b565b80635a599da81461008057806365e17c9d146100a95780636bfb0d01146100d45780637fd6f15c146100ff575b600080fd5b34801561008c57600080fd5b506100a760048036038101906100a29190610d2e565b6101ee565b005b3480156100b557600080fd5b506100be6104d7565b6040516100cb9190610e74565b60405180910390f35b3480156100e057600080fd5b506100e96104fb565b6040516100f69190610f86565b60405180910390f35b34801561010b57600080fd5b50610114610501565b6040516101219190610f86565b60405180910390f35b34801561013657600080fd5b50610151600480360381019061014c9190610cdf565b610525565b005b34801561015f57600080fd5b5061017a60048036038101906101759190610d2e565b6107f7565b60405161018c96959493929190610fa1565b60405180910390f35b3480156101a157600080fd5b506101bc60048036038101906101b79190610d2e565b610880565b6040516101c99190610f86565b60405180910390f35b6101ec60048036038101906101e79190610d2e565b6108e3565b005b60026000541415610234576040517f08c379a000000000000000000000000000000000000000000000000000000000815260040161022b90610f46565b60405180910390fd5b6002600081905550600060026000838152602001908152602001600020905060008211801561026557506001548211155b6102a4576040517f08c379a000000000000000000000000000000000000000000000000000000000815260040161029b90610ee6565b60405180910390fd5b8060040160149054906101000a900460ff16156102f6576040517f08c379a00000000000000000000000000000000000000000000000000000000081526004016102ed90610f26565b60405180910390fd5b3373ffffffffffffffffffffffffffffffffffffffff168160040160009054906101000a900473ffffffffffffffffffffffffffffffffffffffff1673ffffffffffffffffffffffffffffffffffffffff1614610388576040517f08c379a000000000000000000000000000000000000000000000000000000000815260040161037f90610f06565b60405180910390fd5b60018160040160146101000a81548160ff0219169083151502179055508060010160009054906101000a900473ffffffffffffffffffffffffffffffffffffffff1673ffffffffffffffffffffffffffffffffffffffff166323b872dd303384600201546040518463ffffffff1660e01b815260040161040a93929190610e8f565b600060405180830381600087803b15801561042457600080fd5b505af1158015610438573d6000803e3d6000fd5b505050503373ffffffffffffffffffffffffffffffffffffffff168160010160009054906101000a900473ffffffffffffffffffffffffffffffffffffffff1673ffffffffffffffffffffffffffffffffffffffff167f719f17bfa6d819bf3a088c5e64dfae60d609f271b8f537d6690c90b5000b1d588484600201546040516104c3929190611002565b60405180910390a350600160008190555050565b7f000000000000000000000000000000000000000000000000000000000000000081565b60015481565b7f000000000000000000000000000000000000000000000000000000000000000081565b6002600054141561056b576040517f08c379a000000000000000000000000000000000000000000000000000000000815260040161056290610f46565b60405180910390fd5b6002600081905550600081116105b6576040517f08c379a00000000000000000000000000000000000000000000000000000000081526004016105ad90610f66565b60405180910390fd5b600160008154809291906105c990611218565b91905055508273ffffffffffffffffffffffffffffffffffffffff166323b872dd3330856040518463ffffffff1660e01b815260040161060b93929190610e8f565b600060405180830381600087803b15801561062557600080fd5b505af1158015610639573d6000803e3d6000fd5b505050506040518060c0016040528060015481526020018473ffffffffffffffffffffffffffffffffffffffff1681526020018381526020018281526020013373ffffffffffffffffffffffffffffffffffffffff168152602001600015158152506002600060015481526020019081526020016000206000820151816000015560208201518160010160006101000a81548173ffffffffffffffffffffffffffffffffffffffff021916908373ffffffffffffffffffffffffffffffffffffffff160217905550604082015181600201556060820151816003015560808201518160040160006101000a81548173ffffffffffffffffffffffffffffffffffffffff021916908373ffffffffffffffffffffffffffffffffffffffff16021790555060a08201518160040160146101000a81548160ff0219169083151502179055509050503373ffffffffffffffffffffffffffffffffffffffff168373ffffffffffffffffffffffffffffffffffffffff167f0d29d40be62a8b3047df61f04e3926dcfe31a99aff2b04910c203f7d8c7c93b360015485856040516107e29392919061102b565b60405180910390a36001600081905550505050565b60026020528060005260406000206000915090508060000154908060010160009054906101000a900473ffffffffffffffffffffffffffffffffffffffff16908060020154908060030154908060040160009054906101000a900473ffffffffffffffffffffffffffffffffffffffff16908060040160149054906101000a900460ff16905086565b600060647f000000000000000000000000000000000000000000000000000000000000000060646108b19190611073565b60026000858152602001908152602001600020600301546108d291906110fa565b6108dc91906110c9565b9050919050565b60026000541415610929576040517f08c379a000000000000000000000000000000000000000000000000000000000815260040161092090610f46565b60405180910390fd5b6002600081905550600061093c82610880565b9050600060026000848152602001908152602001600020905060008311801561096757506001548311155b6109a6576040517f08c379a000000000000000000000000000000000000000000000000000000000815260040161099d90610ee6565b60405180910390fd5b813410156109e9576040517f08c379a00000000000000000000000000000000000000000000000000000000081526004016109e090610ec6565b60405180910390fd5b8060040160149054906101000a900460ff1615610a3b576040517f08c379a0000000000000000000000000000000000000000000000000000000008152600401610a3290610f26565b60405180910390fd5b8060040160009054906101000a900473ffffffffffffffffffffffffffffffffffffffff1673ffffffffffffffffffffffffffffffffffffffff166108fc82600301549081150290604051600060405180830381858888f19350505050158015610aa9573d6000803e3d6000fd5b507f000000000000000000000000000000000000000000000000000000000000000073ffffffffffffffffffffffffffffffffffffffff166108fc826003015484610af49190611154565b9081150290604051600060405180830381858888f19350505050158015610b1f573d6000803e3d6000fd5b5060018160040160146101000a81548160ff0219169083151502179055508060010160009054906101000a900473ffffffffffffffffffffffffffffffffffffffff1673ffffffffffffffffffffffffffffffffffffffff166323b872dd303384600201546040518463ffffffff1660e01b8152600401610ba293929190610e8f565b600060405180830381600087803b158015610bbc57600080fd5b505af1158015610bd0573d6000803e3d6000fd5b505050503373ffffffffffffffffffffffffffffffffffffffff168160040160009054906101000a900473ffffffffffffffffffffffffffffffffffffffff1673ffffffffffffffffffffffffffffffffffffffff168260010160009054906101000a900473ffffffffffffffffffffffffffffffffffffffff1673ffffffffffffffffffffffffffffffffffffffff167ffbc566d961a0431503c5539f8167bc8c35b193b78ec7f28fa6a2047a62687f36846002015485600201548660030154604051610ca09392919061102b565b60405180910390a45050600160008190555050565b600081359050610cc4816113db565b92915050565b600081359050610cd9816113f2565b92915050565b600080600060608486031215610cf457600080fd5b6000610d0286828701610cb5565b9350506020610d1386828701610cca565b9250506040610d2486828701610cca565b9150509250925092565b600060208284031215610d4057600080fd5b6000610d4e84828501610cca565b91505092915050565b610d608161119a565b82525050565b610d6f81611188565b82525050565b610d7e816111ac565b82525050565b610d8d816111f4565b82525050565b6000610da0603183611062565b9150610dab826112bf565b604082019050919050565b6000610dc3601283611062565b9150610dce8261130e565b602082019050919050565b6000610de6601883611062565b9150610df182611337565b602082019050919050565b6000610e09601a83611062565b9150610e1482611360565b602082019050919050565b6000610e2c601f83611062565b9150610e3782611389565b602082019050919050565b6000610e4f601c83611062565b9150610e5a826113b2565b602082019050919050565b610e6e816111ea565b82525050565b6000602082019050610e896000830184610d57565b92915050565b6000606082019050610ea46000830186610d66565b610eb16020830185610d66565b610ebe6040830184610e65565b949350505050565b60006020820190508181036000830152610edf81610d93565b9050919050565b60006020820190508181036000830152610eff81610db6565b9050919050565b60006020820190508181036000830152610f1f81610dd9565b9050919050565b60006020820190508181036000830152610f3f81610dfc565b9050919050565b60006020820190508181036000830152610f5f81610e1f565b9050919050565b60006020820190508181036000830152610f7f81610e42565b9050919050565b6000602082019050610f9b6000830184610e65565b92915050565b600060c082019050610fb66000830189610e65565b610fc36020830188610d84565b610fd06040830187610e65565b610fdd6060830186610e65565b610fea6080830185610d57565b610ff760a0830184610d75565b979650505050505050565b60006040820190506110176000830185610e65565b6110246020830184610e65565b9392505050565b60006060820190506110406000830186610e65565b61104d6020830185610e65565b61105a6040830184610e65565b949350505050565b600082825260208201905092915050565b600061107e826111ea565b9150611089836111ea565b9250827fffffffffffffffffffffffffffffffffffffffffffffffffffffffffffffffff038211156110be576110bd611261565b5b828201905092915050565b60006110d4826111ea565b91506110df836111ea565b9250826110ef576110ee611290565b5b828204905092915050565b6000611105826111ea565b9150611110836111ea565b9250817fffffffffffffffffffffffffffffffffffffffffffffffffffffffffffffffff048311821515161561114957611148611261565b5b828202905092915050565b600061115f826111ea565b915061116a836111ea565b92508282101561117d5761117c611261565b5b828203905092915050565b6000611193826111ca565b9050919050565b60006111a5826111ca565b9050919050565b60008115159050919050565b60006111c382611188565b9050919050565b600073ffffffffffffffffffffffffffffffffffffffff82169050919050565b6000819050919050565b60006111ff82611206565b9050919050565b6000611211826111ca565b9050919050565b6000611223826111ea565b91507fffffffffffffffffffffffffffffffffffffffffffffffffffffffffffffffff82141561125657611255611261565b5b600182019050919050565b7f4e487b7100000000000000000000000000000000000000000000000000000000600052601160045260246000fd5b7f4e487b7100000000000000000000000000000000000000000000000000000000600052601260045260246000fd5b7f4e6f7420656e6f7567682045544820746f20636f766572206974656d2070726960008201527f636520616e64206d61726b657420666565000000000000000000000000000000602082015250565b7f4974656d20646f65736e27742065786973740000000000000000000000000000600082015250565b7f596f7520646f206e6f74206f776e2074686973206974656d0000000000000000600082015250565b7f4974656d2068617320616c7265616479206265656e20736f6c64000000000000600082015250565b7f5265656e7472616e637947756172643a207265656e7472616e742063616c6c00600082015250565b7f5072696365206d7573742062652067726561746572207468616e203000000000600082015250565b6113e4816111b8565b81146113ef57600080fd5b50565b6113fb816111ea565b811461140657600080fd5b5056fea2646970667358221220f413b3cb1073b34d7706d55ea567e9501ad4677c85374cdfa9980a95458fd82864736f6c63430008040033",
  "linkReferences": {},
  "deployedLinkReferences": {}
}